{
  "_format": "hh-sol-artifact-1",
  "contractName": "Mozeshw2",
  "sourceName": "contracts/Mozes.sol",
  "abi": [
    {
      "anonymous": false,
      "inputs": [
        {
          "indexed": false,
          "internalType": "uint8",
          "name": "version",
          "type": "uint8"
        }
      ],
      "name": "Initialized",
      "type": "event"
    },
    {
      "anonymous": false,
      "inputs": [
        {
          "indexed": false,
          "internalType": "uint256",
          "name": "newNumber",
          "type": "uint256"
        }
      ],
      "name": "NumberChanged",
      "type": "event"
    },
    {
      "inputs": [],
      "name": "getConstant",
      "outputs": [
        {
          "internalType": "string",
          "name": "",
          "type": "string"
        }
      ],
      "stateMutability": "pure",
      "type": "function"
    },
    {
      "inputs": [],
      "name": "getNumber",
      "outputs": [
        {
          "internalType": "uint256",
          "name": "",
          "type": "uint256"
        }
      ],
      "stateMutability": "view",
      "type": "function"
    },
    {
      "inputs": [
        {
          "internalType": "uint256",
          "name": "_initValue",
          "type": "uint256"
        }
      ],
      "name": "initialize",
      "outputs": [],
      "stateMutability": "nonpayable",
      "type": "function"
    },
    {
      "inputs": [
        {
          "internalType": "uint256",
          "name": "newNumber",
          "type": "uint256"
        }
      ],
      "name": "setNumber",
      "outputs": [],
      "stateMutability": "nonpayable",
      "type": "function"
    }
  ],
  "bytecode": "0x608060405234801561001057600080fd5b50610599806100206000396000f3fe608060405234801561001057600080fd5b506004361061004c5760003560e01c80633fb5c1cb14610051578063f13a38a61461006d578063f2c9ecd81461008b578063fe4b84df146100a9575b600080fd5b61006b60048036038101906100669190610308565b6100c5565b005b610075610106565b60405161008291906103c5565b60405180910390f35b610093610162565b6040516100a091906103f6565b60405180910390f35b6100c360048036038101906100be9190610308565b61016c565b005b806001819055507f2fd81fd19d3c5c4b396dd13f451dafc8bcac1b3094c49c5fa90e68456323f0e3816040516100fb91906103f6565b60405180910390a150565b60606040518060400160405280601081526020017f4d6f7a657368656c6c6f20776f726c640000000000000000000000000000000081525060405160200161014e919061044d565b604051602081830303815290604052905090565b6000600154905090565b60008060019054906101000a900460ff1615905080801561019d5750600160008054906101000a900460ff1660ff16105b806101ca57506101ac306102aa565b1580156101c95750600160008054906101000a900460ff1660ff16145b5b610209576040517f08c379a0000000000000000000000000000000000000000000000000000000008152600401610200906104d6565b60405180910390fd5b60016000806101000a81548160ff021916908360ff1602179055508015610246576001600060016101000a81548160ff0219169083151502179055505b8160018190555080156102a65760008060016101000a81548160ff0219169083151502179055507f7f26b83ff96e1f2b6a682f133852f6798a09c465da95921460cefb3847402498600160405161029d9190610548565b60405180910390a15b5050565b6000808273ffffffffffffffffffffffffffffffffffffffff163b119050919050565b600080fd5b6000819050919050565b6102e5816102d2565b81146102f057600080fd5b50565b600081359050610302816102dc565b92915050565b60006020828403121561031e5761031d6102cd565b5b600061032c848285016102f3565b91505092915050565b600081519050919050565b600082825260208201905092915050565b60005b8381101561036f578082015181840152602081019050610354565b60008484015250505050565b6000601f19601f8301169050919050565b600061039782610335565b6103a18185610340565b93506103b1818560208601610351565b6103ba8161037b565b840191505092915050565b600060208201905081810360008301526103df818461038c565b905092915050565b6103f0816102d2565b82525050565b600060208201905061040b60008301846103e7565b92915050565b600081905092915050565b600061042782610335565b6104318185610411565b9350610441818560208601610351565b80840191505092915050565b6000610459828461041c565b915081905092915050565b7f496e697469616c697a61626c653a20636f6e747261637420697320616c72656160008201527f647920696e697469616c697a6564000000000000000000000000000000000000602082015250565b60006104c0602e83610340565b91506104cb82610464565b604082019050919050565b600060208201905081810360008301526104ef816104b3565b9050919050565b6000819050919050565b600060ff82169050919050565b6000819050919050565b600061053261052d610528846104f6565b61050d565b610500565b9050919050565b61054281610517565b82525050565b600060208201905061055d6000830184610539565b9291505056fea26469706673582212201d36038fcf2a346899e77b83c7b00981b642d66457b4aba2286e3afe7179b4bb64736f6c63430008120033",
  "linkReferences": {},
  "deployedLinkReferences": {}
}