{"contracts/Mozes.sol":{"Mozeshw2":{"abi":[{"anonymous":false,"inputs":[{"indexed":false,"internalType":"uint8","name":"version","type":"uint8"}],"name":"Initialized","type":"event"},{"anonymous":false,"inputs":[{"indexed":false,"internalType":"uint256","name":"newNumber","type":"uint256"}],"name":"NumberChanged","type":"event"},{"inputs":[],"name":"getConstant","outputs":[{"internalType":"string","name":"","type":"string"}],"stateMutability":"pure","type":"function"},{"inputs":[],"name":"getNumber","outputs":[{"internalType":"uint256","name":"","type":"uint256"}],"stateMutability":"view","type":"function"},{"inputs":[{"internalType":"uint256","name":"_initValue","type":"uint256"}],"name":"initialize","outputs":[],"stateMutability":"nonpayable","type":"function"},{"inputs":[{"internalType":"uint256","name":"newNumber","type":"uint256"}],"name":"setNumber","outputs":[],"stateMutability":"nonpayable","type":"function"}],"devdoc":{"events":{"Initialized(uint8)":{"details":"Triggered when the contract has been initialized or reinitialized."}},"kind":"dev","methods":{},"version":1},"evm":{"bytecode":{"linkReferences":{},"object":"608060405234801561001057600080fd5b50610599806100206000396000f3fe608060405234801561001057600080fd5b506004361061004c5760003560e01c80633fb5c1cb14610051578063f13a38a61461006d578063f2c9ecd81461008b578063fe4b84df146100a9575b600080fd5b61006b60048036038101906100669190610308565b6100c5565b005b610075610106565b60405161008291906103c5565b60405180910390f35b610093610162565b6040516100a091906103f6565b60405180910390f35b6100c360048036038101906100be9190610308565b61016c565b005b806001819055507f2fd81fd19d3c5c4b396dd13f451dafc8bcac1b3094c49c5fa90e68456323f0e3816040516100fb91906103f6565b60405180910390a150565b60606040518060400160405280601081526020017f4d6f7a657368656c6c6f20776f726c640000000000000000000000000000000081525060405160200161014e919061044d565b604051602081830303815290604052905090565b6000600154905090565b60008060019054906101000a900460ff1615905080801561019d5750600160008054906101000a900460ff1660ff16105b806101ca57506101ac306102aa565b1580156101c95750600160008054906101000a900460ff1660ff16145b5b610209576040517f08c379a0000000000000000000000000000000000000000000000000000000008152600401610200906104d6565b60405180910390fd5b60016000806101000a81548160ff021916908360ff1602179055508015610246576001600060016101000a81548160ff0219169083151502179055505b8160018190555080156102a65760008060016101000a81548160ff0219169083151502179055507f7f26b83ff96e1f2b6a682f133852f6798a09c465da95921460cefb3847402498600160405161029d9190610548565b60405180910390a15b5050565b6000808273ffffffffffffffffffffffffffffffffffffffff163b119050919050565b600080fd5b6000819050919050565b6102e5816102d2565b81146102f057600080fd5b50565b600081359050610302816102dc565b92915050565b60006020828403121561031e5761031d6102cd565b5b600061032c848285016102f3565b91505092915050565b600081519050919050565b600082825260208201905092915050565b60005b8381101561036f578082015181840152602081019050610354565b60008484015250505050565b6000601f19601f8301169050919050565b600061039782610335565b6103a18185610340565b93506103b1818560208601610351565b6103ba8161037b565b840191505092915050565b600060208201905081810360008301526103df818461038c565b905092915050565b6103f0816102d2565b82525050565b600060208201905061040b60008301846103e7565b92915050565b600081905092915050565b600061042782610335565b6104318185610411565b9350610441818560208601610351565b80840191505092915050565b6000610459828461041c565b915081905092915050565b7f496e697469616c697a61626c653a20636f6e747261637420697320616c72656160008201527f647920696e697469616c697a6564000000000000000000000000000000000000602082015250565b60006104c0602e83610340565b91506104cb82610464565b604082019050919050565b600060208201905081810360008301526104ef816104b3565b9050919050565b6000819050919050565b600060ff82169050919050565b6000819050919050565b600061053261052d610528846104f6565b61050d565b610500565b9050919050565b61054281610517565b82525050565b600060208201905061055d6000830184610539565b9291505056fea26469706673582212201d36038fcf2a346899e77b83c7b00981b642d66457b4aba2286e3afe7179b4bb64736f6c63430008120033","opcodes":"PUSH1 0x80 PUSH1 0x40 MSTORE CALLVALUE DUP1 ISZERO PUSH2 0x10 JUMPI PUSH1 0x0 DUP1 REVERT JUMPDEST POP PUSH2 0x599 DUP1 PUSH2 0x20 PUSH1 0x0 CODECOPY PUSH1 0x0 RETURN INVALID PUSH1 0x80 PUSH1 0x40 MSTORE CALLVALUE DUP1 ISZERO PUSH2 0x10 JUMPI PUSH1 0x0 DUP1 REVERT JUMPDEST POP PUSH1 0x4 CALLDATASIZE LT PUSH2 0x4C JUMPI PUSH1 0x0 CALLDATALOAD PUSH1 0xE0 SHR DUP1 PUSH4 0x3FB5C1CB EQ PUSH2 0x51 JUMPI DUP1 PUSH4 0xF13A38A6 EQ PUSH2 0x6D JUMPI DUP1 PUSH4 0xF2C9ECD8 EQ PUSH2 0x8B JUMPI DUP1 PUSH4 0xFE4B84DF EQ PUSH2 0xA9 JUMPI JUMPDEST PUSH1 0x0 DUP1 REVERT JUMPDEST PUSH2 0x6B PUSH1 0x4 DUP1 CALLDATASIZE SUB DUP2 ADD SWAP1 PUSH2 0x66 SWAP2 SWAP1 PUSH2 0x308 JUMP JUMPDEST PUSH2 0xC5 JUMP JUMPDEST STOP JUMPDEST PUSH2 0x75 PUSH2 0x106 JUMP JUMPDEST PUSH1 0x40 MLOAD PUSH2 0x82 SWAP2 SWAP1 PUSH2 0x3C5 JUMP JUMPDEST PUSH1 0x40 MLOAD DUP1 SWAP2 SUB SWAP1 RETURN JUMPDEST PUSH2 0x93 PUSH2 0x162 JUMP JUMPDEST PUSH1 0x40 MLOAD PUSH2 0xA0 SWAP2 SWAP1 PUSH2 0x3F6 JUMP JUMPDEST PUSH1 0x40 MLOAD DUP1 SWAP2 SUB SWAP1 RETURN JUMPDEST PUSH2 0xC3 PUSH1 0x4 DUP1 CALLDATASIZE SUB DUP2 ADD SWAP1 PUSH2 0xBE SWAP2 SWAP1 PUSH2 0x308 JUMP JUMPDEST PUSH2 0x16C JUMP JUMPDEST STOP JUMPDEST DUP1 PUSH1 0x1 DUP2 SWAP1 SSTORE POP PUSH32 0x2FD81FD19D3C5C4B396DD13F451DAFC8BCAC1B3094C49C5FA90E68456323F0E3 DUP2 PUSH1 0x40 MLOAD PUSH2 0xFB SWAP2 SWAP1 PUSH2 0x3F6 JUMP JUMPDEST PUSH1 0x40 MLOAD DUP1 SWAP2 SUB SWAP1 LOG1 POP JUMP JUMPDEST PUSH1 0x60 PUSH1 0x40 MLOAD DUP1 PUSH1 0x40 ADD PUSH1 0x40 MSTORE DUP1 PUSH1 0x10 DUP2 MSTORE PUSH1 0x20 ADD PUSH32 0x4D6F7A657368656C6C6F20776F726C6400000000000000000000000000000000 DUP2 MSTORE POP PUSH1 0x40 MLOAD PUSH1 0x20 ADD PUSH2 0x14E SWAP2 SWAP1 PUSH2 0x44D JUMP JUMPDEST PUSH1 0x40 MLOAD PUSH1 0x20 DUP2 DUP4 SUB SUB DUP2 MSTORE SWAP1 PUSH1 0x40 MSTORE SWAP1 POP SWAP1 JUMP JUMPDEST PUSH1 0x0 PUSH1 0x1 SLOAD SWAP1 POP SWAP1 JUMP JUMPDEST PUSH1 0x0 DUP1 PUSH1 0x1 SWAP1 SLOAD SWAP1 PUSH2 0x100 EXP SWAP1 DIV PUSH1 0xFF AND ISZERO SWAP1 POP DUP1 DUP1 ISZERO PUSH2 0x19D JUMPI POP PUSH1 0x1 PUSH1 0x0 DUP1 SLOAD SWAP1 PUSH2 0x100 EXP SWAP1 DIV PUSH1 0xFF AND PUSH1 0xFF AND LT JUMPDEST DUP1 PUSH2 0x1CA JUMPI POP PUSH2 0x1AC ADDRESS PUSH2 0x2AA JUMP JUMPDEST ISZERO DUP1 ISZERO PUSH2 0x1C9 JUMPI POP PUSH1 0x1 PUSH1 0x0 DUP1 SLOAD SWAP1 PUSH2 0x100 EXP SWAP1 DIV PUSH1 0xFF AND PUSH1 0xFF AND EQ JUMPDEST JUMPDEST PUSH2 0x209 JUMPI PUSH1 0x40 MLOAD PUSH32 0x8C379A000000000000000000000000000000000000000000000000000000000 DUP2 MSTORE PUSH1 0x4 ADD PUSH2 0x200 SWAP1 PUSH2 0x4D6 JUMP JUMPDEST PUSH1 0x40 MLOAD DUP1 SWAP2 SUB SWAP1 REVERT JUMPDEST PUSH1 0x1 PUSH1 0x0 DUP1 PUSH2 0x100 EXP DUP2 SLOAD DUP2 PUSH1 0xFF MUL NOT AND SWAP1 DUP4 PUSH1 0xFF AND MUL OR SWAP1 SSTORE POP DUP1 ISZERO PUSH2 0x246 JUMPI PUSH1 0x1 PUSH1 0x0 PUSH1 0x1 PUSH2 0x100 EXP DUP2 SLOAD DUP2 PUSH1 0xFF MUL NOT AND SWAP1 DUP4 ISZERO ISZERO MUL OR SWAP1 SSTORE POP JUMPDEST DUP2 PUSH1 0x1 DUP2 SWAP1 SSTORE POP DUP1 ISZERO PUSH2 0x2A6 JUMPI PUSH1 0x0 DUP1 PUSH1 0x1 PUSH2 0x100 EXP DUP2 SLOAD DUP2 PUSH1 0xFF MUL NOT AND SWAP1 DUP4 ISZERO ISZERO MUL OR SWAP1 SSTORE POP PUSH32 0x7F26B83FF96E1F2B6A682F133852F6798A09C465DA95921460CEFB3847402498 PUSH1 0x1 PUSH1 0x40 MLOAD PUSH2 0x29D SWAP2 SWAP1 PUSH2 0x548 JUMP JUMPDEST PUSH1 0x40 MLOAD DUP1 SWAP2 SUB SWAP1 LOG1 JUMPDEST POP POP JUMP JUMPDEST PUSH1 0x0 DUP1 DUP3 PUSH20 0xFFFFFFFFFFFFFFFFFFFFFFFFFFFFFFFFFFFFFFFF AND EXTCODESIZE GT SWAP1 POP SWAP2 SWAP1 POP JUMP JUMPDEST PUSH1 0x0 DUP1 REVERT JUMPDEST PUSH1 0x0 DUP2 SWAP1 POP SWAP2 SWAP1 POP JUMP JUMPDEST PUSH2 0x2E5 DUP2 PUSH2 0x2D2 JUMP JUMPDEST DUP2 EQ PUSH2 0x2F0 JUMPI PUSH1 0x0 DUP1 REVERT JUMPDEST POP JUMP JUMPDEST PUSH1 0x0 DUP2 CALLDATALOAD SWAP1 POP PUSH2 0x302 DUP2 PUSH2 0x2DC JUMP JUMPDEST SWAP3 SWAP2 POP POP JUMP JUMPDEST PUSH1 0x0 PUSH1 0x20 DUP3 DUP5 SUB SLT ISZERO PUSH2 0x31E JUMPI PUSH2 0x31D PUSH2 0x2CD JUMP JUMPDEST JUMPDEST PUSH1 0x0 PUSH2 0x32C DUP5 DUP3 DUP6 ADD PUSH2 0x2F3 JUMP JUMPDEST SWAP2 POP POP SWAP3 SWAP2 POP POP JUMP JUMPDEST PUSH1 0x0 DUP2 MLOAD SWAP1 POP SWAP2 SWAP1 POP JUMP JUMPDEST PUSH1 0x0 DUP3 DUP3 MSTORE PUSH1 0x20 DUP3 ADD SWAP1 POP SWAP3 SWAP2 POP POP JUMP JUMPDEST PUSH1 0x0 JUMPDEST DUP4 DUP2 LT ISZERO PUSH2 0x36F JUMPI DUP1 DUP3 ADD MLOAD DUP2 DUP5 ADD MSTORE PUSH1 0x20 DUP2 ADD SWAP1 POP PUSH2 0x354 JUMP JUMPDEST PUSH1 0x0 DUP5 DUP5 ADD MSTORE POP POP POP POP JUMP JUMPDEST PUSH1 0x0 PUSH1 0x1F NOT PUSH1 0x1F DUP4 ADD AND SWAP1 POP SWAP2 SWAP1 POP JUMP JUMPDEST PUSH1 0x0 PUSH2 0x397 DUP3 PUSH2 0x335 JUMP JUMPDEST PUSH2 0x3A1 DUP2 DUP6 PUSH2 0x340 JUMP JUMPDEST SWAP4 POP PUSH2 0x3B1 DUP2 DUP6 PUSH1 0x20 DUP7 ADD PUSH2 0x351 JUMP JUMPDEST PUSH2 0x3BA DUP2 PUSH2 0x37B JUMP JUMPDEST DUP5 ADD SWAP2 POP POP SWAP3 SWAP2 POP POP JUMP JUMPDEST PUSH1 0x0 PUSH1 0x20 DUP3 ADD SWAP1 POP DUP2 DUP2 SUB PUSH1 0x0 DUP4 ADD MSTORE PUSH2 0x3DF DUP2 DUP5 PUSH2 0x38C JUMP JUMPDEST SWAP1 POP SWAP3 SWAP2 POP POP JUMP JUMPDEST PUSH2 0x3F0 DUP2 PUSH2 0x2D2 JUMP JUMPDEST DUP3 MSTORE POP POP JUMP JUMPDEST PUSH1 0x0 PUSH1 0x20 DUP3 ADD SWAP1 POP PUSH2 0x40B PUSH1 0x0 DUP4 ADD DUP5 PUSH2 0x3E7 JUMP JUMPDEST SWAP3 SWAP2 POP POP JUMP JUMPDEST PUSH1 0x0 DUP2 SWAP1 POP SWAP3 SWAP2 POP POP JUMP JUMPDEST PUSH1 0x0 PUSH2 0x427 DUP3 PUSH2 0x335 JUMP JUMPDEST PUSH2 0x431 DUP2 DUP6 PUSH2 0x411 JUMP JUMPDEST SWAP4 POP PUSH2 0x441 DUP2 DUP6 PUSH1 0x20 DUP7 ADD PUSH2 0x351 JUMP JUMPDEST DUP1 DUP5 ADD SWAP2 POP POP SWAP3 SWAP2 POP POP JUMP JUMPDEST PUSH1 0x0 PUSH2 0x459 DUP3 DUP5 PUSH2 0x41C JUMP JUMPDEST SWAP2 POP DUP2 SWAP1 POP SWAP3 SWAP2 POP POP JUMP JUMPDEST PUSH32 0x496E697469616C697A61626C653A20636F6E747261637420697320616C726561 PUSH1 0x0 DUP3 ADD MSTORE PUSH32 0x647920696E697469616C697A6564000000000000000000000000000000000000 PUSH1 0x20 DUP3 ADD MSTORE POP JUMP JUMPDEST PUSH1 0x0 PUSH2 0x4C0 PUSH1 0x2E DUP4 PUSH2 0x340 JUMP JUMPDEST SWAP2 POP PUSH2 0x4CB DUP3 PUSH2 0x464 JUMP JUMPDEST PUSH1 0x40 DUP3 ADD SWAP1 POP SWAP2 SWAP1 POP JUMP JUMPDEST PUSH1 0x0 PUSH1 0x20 DUP3 ADD SWAP1 POP DUP2 DUP2 SUB PUSH1 0x0 DUP4 ADD MSTORE PUSH2 0x4EF DUP2 PUSH2 0x4B3 JUMP JUMPDEST SWAP1 POP SWAP2 SWAP1 POP JUMP JUMPDEST PUSH1 0x0 DUP2 SWAP1 POP SWAP2 SWAP1 POP JUMP JUMPDEST PUSH1 0x0 PUSH1 0xFF DUP3 AND SWAP1 POP SWAP2 SWAP1 POP JUMP JUMPDEST PUSH1 0x0 DUP2 SWAP1 POP SWAP2 SWAP1 POP JUMP JUMPDEST PUSH1 0x0 PUSH2 0x532 PUSH2 0x52D PUSH2 0x528 DUP5 PUSH2 0x4F6 JUMP JUMPDEST PUSH2 0x50D JUMP JUMPDEST PUSH2 0x500 JUMP JUMPDEST SWAP1 POP SWAP2 SWAP1 POP JUMP JUMPDEST PUSH2 0x542 DUP2 PUSH2 0x517 JUMP JUMPDEST DUP3 MSTORE POP POP JUMP JUMPDEST PUSH1 0x0 PUSH1 0x20 DUP3 ADD SWAP1 POP PUSH2 0x55D PUSH1 0x0 DUP4 ADD DUP5 PUSH2 0x539 JUMP JUMPDEST SWAP3 SWAP2 POP POP JUMP INVALID LOG2 PUSH5 0x6970667358 0x22 SLT KECCAK256 SAR CALLDATASIZE SUB DUP16 0xCF 0x2A CALLVALUE PUSH9 0x99E77B83C7B00981B6 TIMESTAMP 0xD6 PUSH5 0x57B4ABA228 PUSH15 0x3AFE7179B4BB64736F6C6343000812 STOP CALLER "},"gasEstimates":{"creation":{"codeDepositCost":"286600","executionCost":"324","totalCost":"286924"},"external":{"getConstant()":"infinite","getNumber()":"2459","initialize(uint256)":"106069","setNumber(uint256)":"infinite"}},"methodIdentifiers":{"getConstant()":"f13a38a6","getNumber()":"f2c9ecd8","initialize(uint256)":"fe4b84df","setNumber(uint256)":"3fb5c1cb"}},"storageLayout":{"storage":[{"astId":6,"contract":"contracts/Mozes.sol:Mozeshw2","label":"_initialized","offset":0,"slot":"0","type":"t_uint8"},{"astId":9,"contract":"contracts/Mozes.sol:Mozeshw2","label":"_initializing","offset":1,"slot":"0","type":"t_bool"},{"astId":459,"contract":"contracts/Mozes.sol:Mozeshw2","label":"number","offset":0,"slot":"1","type":"t_uint256"}],"types":{"t_bool":{"encoding":"inplace","label":"bool","numberOfBytes":"1"},"t_uint256":{"encoding":"inplace","label":"uint256","numberOfBytes":"32"},"t_uint8":{"encoding":"inplace","label":"uint8","numberOfBytes":"1"}}},"userdoc":{"kind":"user","methods":{},"version":1}}}}