{
  "_format": "hh-sol-artifact-1",
  "contractName": "Mozes2hw2",
  "sourceName": "contracts/Mozes2.sol",
  "abi": [
    {
      "anonymous": false,
      "inputs": [
        {
          "indexed": false,
          "internalType": "uint8",
          "name": "version",
          "type": "uint8"
        }
      ],
      "name": "Initialized",
      "type": "event"
    },
    {
      "anonymous": false,
      "inputs": [
        {
          "indexed": false,
          "internalType": "uint256",
          "name": "newNumber",
          "type": "uint256"
        }
      ],
      "name": "NumberChanged",
      "type": "event"
    },
    {
      "inputs": [],
      "name": "getConstant",
      "outputs": [
        {
          "internalType": "string",
          "name": "",
          "type": "string"
        }
      ],
      "stateMutability": "pure",
      "type": "function"
    },
    {
      "inputs": [],
      "name": "getNumber",
      "outputs": [
        {
          "internalType": "uint256",
          "name": "",
          "type": "uint256"
        }
      ],
      "stateMutability": "view",
      "type": "function"
    },
    {
      "inputs": [
        {
          "internalType": "uint256",
          "name": "_initValue",
          "type": "uint256"
        }
      ],
      "name": "initialize",
      "outputs": [],
      "stateMutability": "nonpayable",
      "type": "function"
    },
    {
      "inputs": [
        {
          "internalType": "uint256",
          "name": "newNumber",
          "type": "uint256"
        }
      ],
      "name": "setNumber",
      "outputs": [],
      "stateMutability": "nonpayable",
      "type": "function"
    }
  ],
  "bytecode": "0x608060405234801561001057600080fd5b50610618806100206000396000f3fe608060405234801561001057600080fd5b506004361061004c5760003560e01c80633fb5c1cb14610051578063f13a38a61461006d578063f2c9ecd81461008b578063fe4b84df146100a9575b600080fd5b61006b60048036038101906100669190610316565b6100c5565b005b610075610114565b60405161008291906103d3565b60405180910390f35b610093610170565b6040516100a09190610404565b60405180910390f35b6100c360048036038101906100be9190610316565b61017a565b005b6002816100d2919061044e565b6001819055507f2fd81fd19d3c5c4b396dd13f451dafc8bcac1b3094c49c5fa90e68456323f0e36001546040516101099190610404565b60405180910390a150565b60606040518060400160405280600e81526020017f4d6f7a65733035353968656c6c6f00000000000000000000000000000000000081525060405160200161015c91906104cc565b604051602081830303815290604052905090565b6000600154905090565b60008060019054906101000a900460ff161590508080156101ab5750600160008054906101000a900460ff1660ff16105b806101d857506101ba306102b8565b1580156101d75750600160008054906101000a900460ff1660ff16145b5b610217576040517f08c379a000000000000000000000000000000000000000000000000000000000815260040161020e90610555565b60405180910390fd5b60016000806101000a81548160ff021916908360ff1602179055508015610254576001600060016101000a81548160ff0219169083151502179055505b8160018190555080156102b45760008060016101000a81548160ff0219169083151502179055507f7f26b83ff96e1f2b6a682f133852f6798a09c465da95921460cefb384740249860016040516102ab91906105c7565b60405180910390a15b5050565b6000808273ffffffffffffffffffffffffffffffffffffffff163b119050919050565b600080fd5b6000819050919050565b6102f3816102e0565b81146102fe57600080fd5b50565b600081359050610310816102ea565b92915050565b60006020828403121561032c5761032b6102db565b5b600061033a84828501610301565b91505092915050565b600081519050919050565b600082825260208201905092915050565b60005b8381101561037d578082015181840152602081019050610362565b60008484015250505050565b6000601f19601f8301169050919050565b60006103a582610343565b6103af818561034e565b93506103bf81856020860161035f565b6103c881610389565b840191505092915050565b600060208201905081810360008301526103ed818461039a565b905092915050565b6103fe816102e0565b82525050565b600060208201905061041960008301846103f5565b92915050565b7f4e487b7100000000000000000000000000000000000000000000000000000000600052601160045260246000fd5b6000610459826102e0565b9150610464836102e0565b9250828202610472816102e0565b915082820484148315176104895761048861041f565b5b5092915050565b600081905092915050565b60006104a682610343565b6104b08185610490565b93506104c081856020860161035f565b80840191505092915050565b60006104d8828461049b565b915081905092915050565b7f496e697469616c697a61626c653a20636f6e747261637420697320616c72656160008201527f647920696e697469616c697a6564000000000000000000000000000000000000602082015250565b600061053f602e8361034e565b915061054a826104e3565b604082019050919050565b6000602082019050818103600083015261056e81610532565b9050919050565b6000819050919050565b600060ff82169050919050565b6000819050919050565b60006105b16105ac6105a784610575565b61058c565b61057f565b9050919050565b6105c181610596565b82525050565b60006020820190506105dc60008301846105b8565b9291505056fea26469706673582212208172a340872980dbc1ac8b104644b0a4d15934158242e88c529ceb233f8baf3564736f6c63430008120033",
  "linkReferences": {},
  "deployedLinkReferences": {}
}